:020000040800F2
:100000003004002049010008751000083F10000866
:1000100071100008710A0008E914000800000000CF
:100020000000000000000000000000006D1100084A
:100030000D0F00080000000077100008591200089A
:100040006301000863010008630100086301000800
:1000500063010008630100086301000863010008F0
:1000600063010008630100086301000863010008E0
:1000700063010008630100086301000863010008D0
:1000800063010008630100086301000863010008C0
:1000900063010008630100086301000863010008B0
:1000A00063010008630100086301000863010008A0
:1000B0006301000863010008630100086301000890
:1000C0006301000863010008630100086301000880
:1000D0006301000863010008630100086301000870
:1000E0006301000863010008630100086301000860
:1000F0006301000863010008630100086301000850
:10010000630100086301000863010008630100083F
:10011000630100086301000863010008630100082F
:10012000630100086301000863010008630100081F
:10013000DFF810D000F0D4FB00480047691F00082A
:10014000AFF300803004002006488047064800478F
:10015000FEE7FEE7FEE7FEE7FEE7FEE7FEE7FEE777
:10016000FEE7FEE7DD12000831010008F0B480EA86
:100170000102D40F4200B2EB410F02D20246084600
:1001800011464A0042D0C30DDDB2C1F3C752AD1AC9
:10019000202D35DAC1F3160141F4000204B15242B8
:1001A000C5F1200602FA06F12A411044B3EBD05FF4
:1001B00023D0C4B1012DA0EBC35009DCF0BC4FF03B
:1001C000004202EAC352DBB200F5000000F025BA9B
:1001D000400000F1807000EBC350A0F1807040EA55
:1001E000D170490009E0490841EAC071A0EBC35051
:1001F00000F50000400800EBC350F0BC00F004BA6A
:100200006142012202EB4101001BF6E7F0BC70479E
:1002100081F00041AAE780F00040A7E780EA0102F0
:1002200010B502F00043400022D04A001FD0010E5A
:1002300001EB1261C0F35600C2F3560240F4000015
:1002400042F40002A0FB022000047F39140400D015
:10025000401C50EA124001D44000491EC2B20C06B4
:1002600004EBD010401C4008802A02D003E000209C
:1002700010BD20F00100002900DA0020184310BD55
:1002800030B480EA010202F0004530F0004221F073
:10029000004013D090B1C30DD40DC2F31601C0F3CA
:1002A0001600E41A41F4000140F400027D3491424A
:1002B00001D3641C00E04900002C02DA30BC0020AD
:1002C00070474FF400000023914201D3891A034381
:1002D00040084FEA4101F7D151B1914202D14FF0AC
:1002E000004105E002D24FF0010101E06FF0010191
:1002F00003EBC450284430BC00F086B92DE9FE4F12
:1003000081EA030404F0004421F0004100944FF01E
:10031000000B23F0004350EA01045ED052EA0304CC
:100320005BD0C3F30A54C1F30A552C44A4F2F3344E
:100330000194A0FB0254C1F3130141F48011C3F3F3
:10034000130343F4801301FB024400FB034E840AB1
:10035000970A44EA815447EA8357A4FB0768029549
:100360008D0A05FB07854FEA932C04FB0C542705E7
:10037000029D4FEA065847EA1637B5EB08056EEBC3
:10038000070C870E920E47EA811742EA8312A7FBF9
:100390000201B6EB0B0164EB00042B0D43EA0C33B6
:1003A0005E1844EB1C50DA465146E7FB0201C5F3E8
:1003B00013044FEA0B3343EA14534FEA0432019C0F
:1003C00043EA0603A4F10C040294009CCDE900B4B6
:1003D00000F060F903B0BDE8F08F00200146F9E7B6
:1003E0002DE9F04D81EA030404F0004B21F00045B3
:1003F00014464FF0000A23F0004150EA050220D0D5
:1004000054EA01021DD0C5F30A570246C5F313038F
:10041000C1F31300C1F30A5640F4801543F480136E
:10042000A7EB0608101BD64608F2FD3873EB050053
:1004300002D308F1010801E092185B41B8F1000F06
:1004400003DA00200146BDE8F08D00204FF4801152
:10045000064684460EE0171B73EB050705D3121BF7
:1004600063EB050306434CEA010C49084FEA3000F0
:1004700092185B4150EA0107EDD152EA030012D015
:1004800082EA040083EA0501084305D0101BAB4152
:1004900006D20122002306E000224FF0004302E0D2
:1004A0006FF0010253101AEB06004CEB085110EBF1
:1004B0000A0041EB0B01BDE8F04D00F0DCB89623DB
:1004C0000022114600F0A9B80EB5C10F80EAE07015
:1004D0000844CA07002140F233438DE80E000A4663
:1004E0000B4600F0D7F803B000BD00F0004220F04A
:1004F0000040C10DC0F3160040F400007F2901DA6E
:1005000000207047962903DCC1F19601C84001E044
:1005100096398840002AF4D04042704700F00042EB
:1005200030F000400AD0C10D01F56071C0F3160033
:1005300042EA0151C20840071143704700200146BA
:10054000704701F0004330B421F0004150EA01024D
:1005500006D00A0DA2F56072C1F31301002A02DC75
:1005600030BC00207047440F44EAC104C100E018C9
:1005700030BC00EBC25000F047B830B50B46014626
:1005800000202022012409E021FA02F59D4205D332
:1005900003FA02F5491B04FA02F52844151EA2F1DC
:1005A0000102F1DC30BD2DE9F05F054600209246E6
:1005B0009B4688460646814640241BE02846414625
:1005C0004746224600F0ADF953465A46C01A9141BB
:1005D00010D311461846224600F094F92D1A67EB05
:1005E00001084F4622460120002100F08BF917EB4D
:1005F00000094E41201EA4F10104DFDC48463146CB
:100600002A464346BDE8F09F0029A8BF7047401C1A
:10061000490008BF20F00100704710B4B0FA80FC18
:1006200000FA0CF050EA010404BF10BC704749B155
:10063000CCF1200421FA04F411FA0CF118BF0121C5
:1006400021430843A3EB0C01CB1D4FEA00614FEAA5
:10065000102042BF002010BC704700EBC350104474
:100660000029A4BF10BC7047401C490008BF20F0FF
:10067000010010BC704710B5141E73F1000408DAB5
:10068000401C41F1000192185B411A4301D120F056
:10069000010010BD2DE9F04D92469B4611B1B1FA13
:1006A00081F202E0B0FA80F22032904600F02AF99E
:1006B00004460F4640EA0A0041EA0B0153465A46F7
:1006C000084313D0114653EA010019D0C8F1400283
:1006D000504600F026F905460E4650465946424619
:1006E00000F010F9084305D0012004E02046394607
:1006F000BDE8F08D0020054346EAE0762C43374301
:100700000A986305E40AA0EB08000022FD0A44EA07
:1007100047540A3002D500200146E9E701051019C7
:100720006941DDE9084500196941BDE8F04DA2E7DE
:100730002DE9FE4F804681EA0300C00F0C46009071
:1007400021F0004123F00045B8EB0200A94105D299
:100750004046214690461C460B46024623F0004088
:10076000104347D0270DC7F30A00C3F30A51029084
:10077000401A019040286BDAC3F3130040F4801B49
:100780000098924620B10023D2EB030A63EB0B0BD7
:1007900001985946C0F14002504600F0B3F80646B1
:1007A0000D4650465946019A00F0CBF810EB080070
:1007B0006141002487EA115284EAE7731A4340D06A
:1007C000009A62B3019A012A4FEA075215DC001B16
:1007D00061EB02014FF0004202EA0752CDE900420C
:1007E000001C41F5801132462B46FFF753FF03B042
:1007F000BDE8F08F40462146F9E7001B61EB02019E
:10080000001C41F5801300185B412018A2F5001769
:1008100047EB030140EAD570B6196D4111E06D0850
:100820004FEA360645EAC0754FEA0752001B61EBF6
:100830000201001C41F5801149084FEA30000019FF
:10084000514132462B4603B0BDE8F04FFFF713BFCE
:100850000098012240000023D0EB020263EBE0731A
:10086000009821464FEAE074B8EB000061EB040108
:10087000E9E783F000435BE781F0004158E7C1F30B
:100880000A52C1F3130140F2FF3341F480119A423E
:1008900002DA00200146704740F233439A42A2F246
:1008A000334202DC524200F03CB800F02BB80000AA
:1008B00030B5041E71F1000404DB4FF000444042E7
:1008C00064EB0101141E73F1000405DB1C464FF0BC
:1008D0000043524263EB0403994208BF904230BD8B
:1008E000064C074D06E0E06840F0010394E807007D
:1008F00098471034AC42F6D3FFF71EFCB82000082E
:10090000D8200008202A04DB203A00FA02F1002057
:1009100070479140C2F1200320FA03F3194390403D
:100920007047202A04DB203A21FA02F000217047A8
:1009300021FA02F3D040C2F1200291400843194647
:100940007047202A06DBCB17203A41FA02F043EA2F
:10095000E07306E041FA02F3D040C2F12002914078
:1009600008431946704700002DE9F0470024A246CD
:10097000A14608E000F03CF88246641C4946504617
:10098000FFF7F4FB8146032CF4D14846FFF7C6FD80
:1009900007460022044BFFF723FD0546FFF7D1FD74
:1009A00082465046BDE8F0870000084010B5044676
:1009B00001F094FA462001F067FA01F0B7FA012835
:1009C00000D110BD204601F05FFA01F0AFFA012816
:1009D00001D10220F5E701F099FA0020F1E710B506
:1009E00000F030FB00F016F81020FFF7DFFF10BD1D
:1009F00070B500F014F80646FFF761FD054604499E
:100A0000FFF73EFC04464FF07E51FFF707FC70BD38
:100A1000CDCC8C3F10B50120FFF7C8FF10BD10B53D
:100A2000002401F05BFA472001F02EFA01F07EFA73
:100A3000012801D1002010BD01F004FA044601F0A4
:100A4000CDF901F0FFF900EB042084B201F0E6F9E2
:100A500001F05CFA2046EEE770B50024FFF784FF52
:100A600005462C46204670BD10B5FFF7B8FF10BDF7
:100A700000BFFEE70748006840F080700549086045
:100A80000020054948600846006840F00100086001
:100A900070470000FCED00E0001000E001484068F5
:100AA00070470000001000E031B50024FFF7E2FFBE
:100AB000104800681049B0FBF1F0009900FB01F507
:100AC00000BFFFF7EBFF034611E0FFF7E7FF024629
:100AD0009A420CD09A4202D9D01A044403E0C3F1DE
:100AE000FF30104404441346AC4200D300E0ECE76E
:100AF00000BF38BD0000002040420F0008B50121B2
:100B0000402000F0B9FA2020ADF8000010208DF848
:100B1000030003208DF802006946024800F0F7F94F
:100B200008BD00000018014010B5FFF7E7FF2021C5
:100B3000014800F082FA10BD0018014008B52020DD
:100B4000ADF8000048208DF803006946014800F028
:100B5000DEF908BD0018014008B52020ADF80000FE
:100B600010208DF8030003208DF80200694602482A
:100B700000F0CDF908BD00000018014070B5002557
:100B8000002424E000BF2021134800F04BFA002885
:100B9000F9D02820FFF788FF20210F4800F042FA03
:100BA00001280DD100BF20210B4800F03BFA01289D
:100BB000F9D0C4F1070101208840C0B2054304E028
:100BC000C4F10701012088408543601CC4B2082C91
:100BD000D8DB284670BD00000018014010B504465F
:100BE000FFF7BAFF2021244800F025FA44F25060B4
:100BF000FFF75AFF2021204800F01FFA1E20FFF7C0
:100C000053FFFFF79BFF20211B4800F00BFA70BB3E
:100C100000BF2021184800F005FA0028F9D000BFD5
:100C20002021154800F0FEF90128F9D0FFF7A6FFB2
:100C30002070FFF7A3FF6070FFF7A0FFA070FFF721
:100C40009DFFE070FFF79AFF2071FFF785FF2021DD
:100C5000094800F0F2F9207861780844A178084446
:100C6000E17808442179884202D1012010BD01E0D9
:100C70000020FBE70020F9E70018014008B501213A
:100C8000402000F0F9F94020ADF8000010208DF868
:100C9000030003208DF802006946024800F037F98E
:100CA00008BD0000001801402DE9FC5F064600F079
:100CB00057F8002404E0305D00F0FAF8601CC4B27C
:100CC000082CF8DB442000F0F3F800F049F8002489
:100CD00004E0305D00F0ECF8601CC4B2082CF8DBD6
:100CE000BE2000F0E5F800F0ADF8834600F0AAF869
:100CF00081464FEA092005B245EA0B05002D0EDAC0
:100D0000E843401CFFF7E0FB074600220C4BFFF7CF
:100D1000F5FACDE90001FFF714FC82460CE0284605
:100D2000FFF7D2FB07460022054BFFF7E7FACDE9B4
:100D30000001FFF706FC82465046BDE8FC9F00001C
:100D40000000B03F10B5FFF799FF4021034800F0C5
:100D500074F900F097F800F02DF810BD001801406C
:100D600010B500F08FF800F025F8552000F0A0F83D
:100D700010BD000008B54020ADF8000048208DF8F7
:100D800003006946014800F0C2F808BD00180140A0
:100D900008B54020ADF8000010208DF803000320B6
:100DA0008DF802006946024800F0B1F808BD000065
:100DB0000018014010B50024FFF7DCFF04E0601CC0
:100DC000C4B20120FFF770FE40210F4800F02AF95D
:100DD00008B1642CF3DB642C01DB012010BD00247E
:100DE00004E0601CC4B20120FFF75EFE402106480B
:100DF00000F018F908B9F02CF3DBF02C01DB01202E
:100E0000ECE70020EAE700000018014010B5FFF70A
:100E1000BFFF40210A4800F00EF90A20FFF744FE08
:100E2000FFF7A8FF4021064800F0FCF8012801D197
:100E3000012400E000242D20FFF736FE204610BDDF
:100E40000018014070B50026002408E0FFF7DEFF1F
:100E5000054605FA04F03043C6B2601CC4B2082C43
:100E6000F4DB304670BD70B50546332000F020F845
:100E7000002404E0FFF7E6FF2855601CC4B2082CEC
:100E8000F8DB70BD10B5FFF783FF4021074800F085
:100E9000D2F840F2EE20FFF707FE4021034800F0B1
:100EA000CCF80F20FFF700FE10BD00000018014035
:100EB00070B50446FFF76CFF002522E004F0010640
:100EC000641076B14021104800F0B5F80820FFF713
:100ED000EBFD40210C4800F0B0F83A20FFF7E4FDAC
:100EE0000DE04021084800F0A6F84620FFF7DCFDA1
:100EF0004021054800F0A1F80220FFF7D5FD681C4D
:100F0000C5B2082DDADB70BD0018014070472DE92D
:100F1000F04102460025002600200023002400277F
:100F200091F803C00CF00F0591F803C00CF0100C01
:100F3000BCF1000F03D091F802C04CEA050591F80E
:100F400000C0BCF1000F31D0146800202BE04FF03E
:100F5000010C0CFA00F3B1F800C00CEA03069E4243
:100F600020D183004FF00F0C0CFA03F7BC4305FAB5
:100F700003FC4CEA040491F803C0BCF1280F06D12D
:100F80004FF0010C0CFA00FCC2F814C00AE091F812
:100F900003C0BCF1480F05D14FF0010C0CFA00FC66
:100FA000C2F810C0401C0828D1D31460B1F800C0AA
:100FB000BCF1FF0F34DD546800202EE000F1080C76
:100FC0004FF0010808FA0CF3B1F800C00CEA030670
:100FD0009E4221D183004FF00F0C0CFA03F7BC4363
:100FE00005FA03FC4CEA040491F803C0BCF1280F95
:100FF00005D100F1080C08FA0CF8C2F8148091F839
:1010000003C0BCF1480F07D100F1080C4FF00108F4
:1010100008FA0CF8C2F81080401C0828CED354609F
:10102000BDE8F0810246002093680B400BB101201F
:1010300000E000207047416170470161704700BFC8
:10104000FEE7000008B50121042000F015F8032098
:10105000ADF800008DF8020014208DF803006946F9
:101060000248FFF754FF00F051FF08BD000801409F
:1010700000BFFEE77047704729B1064A92690243F4
:10108000044B9A6104E0034A92698243014B9A61DE
:10109000704700000010024030B5002100220024FB
:1010A00000232D4D6D6805F00C0121B1042905D0F8
:1010B000082923D105E0294D056022E0274D056070
:1010C0001FE0254D6D6805F47012234D6D6805F421
:1010D0008034022505EB92421CB9214D5543056031
:1010E0000BE01D4D6D6805F400351DB11C4D5543D9
:1010F000056002E0194D5543056002E0174D05609B
:1011000000BF00BF144D6D6805F0F0010909154DD1
:101110006B5C0568DD4045600F4D6D6805F4E0616E
:10112000090A104D6B5C4568DD4085600A4D6D68AD
:1011300005F46051C90A0B4D6B5C4568DD40C56024
:10114000054D6D6805F44041890B074D6B5CC56822
:10115000B5FBF3F5056130BD0010024000127A00C6
:1011600000093D001400002024000020704710B545
:1011700000F002F810BD00000CB5002001900090B6
:101180003348006840F480303149086000BF30487F
:10119000006800F4003000900198401C0190009815
:1011A00018B90198B0F5A06FF1D12948006800F492
:1011B000003010B10120009001E000200090009864
:1011C000012843D12348006840F0100021490860FD
:1011D0000846006820F0030008600846006840F0F8
:1011E000020008601A48406819494860084640688B
:1011F00048600846406840F480604860084640689F
:1012000020F47C1048600846406840F4E8104860CC
:101210000846006840F08070086000BF0C48006815
:1012200000F000700028F9D00948406820F0030061
:10123000074948600846406840F00200486000BF27
:101240000348406800F00C000828F9D10CBD0000EC
:10125000001002400020024010B500F06FF810BDF1
:1012600030B51A4800681A4AB0FBF2F1B1F1807F3C
:1012700001D301201DE021F07F40401E4FF0E0220D
:10128000506150170F22002807DA13071D0E114B6B
:1012900000F00F04241F1D5503E013071C0E0E4B16
:1012A0001C5400BF00204FF0E02290610720106125
:1012B000002008B100BFFEE74FF0E020006920F0F9
:1012C00001004FF0E021086130BD00000000002067
:1012D00040420F0018ED00E000E400E010B51348B4
:1012E000006840F001001149086008464068104954
:1012F00008400E494860084600680E4908400B49FE
:1013000008600846006820F48020086008464068AD
:1013100020F4FE0048604FF41F008860FFF727FFAD
:101320004FF000600449086010BD0000001002404A
:101330000000FFF8FFFFF6FE08ED00E0044800683B
:1013400020B103480068401E014908607047000052
:101350002800002021B1828942F40052828104E0F9
:1013600082894DF6FF731A408281704700B585B0BF
:1013700001210420FFF780FE01218803FFF77CFE96
:101380004FF40070ADF8100018208DF81300032002
:101390008DF8120004A91348FFF7B9FD4FF48060DF
:1013A000ADF8100004208DF8130004A90D48FFF7D4
:1013B000AEFD4FF4E13000900020ADF80400ADF830
:1013C0000600ADF80800ADF80C000C20ADF80A00DE
:1013D0006946054800F018F801210348FFF7BAFFF5
:1013E00005B000BD00080140003801400246002061
:1013F000B1F5007F00D100BF13880B400BB1012075
:1014000000E00020704700002DE9F04786B0054657
:101410000E460024A24600BFA1460027B08900B1B5
:1014200000BF2F462C8A4CF6FF700440F08804431E
:101430002C82AC894EF6F3100440B0883189084301
:10144000718908430443AC81AC8A4FF6FF400440E5
:10145000B0890443AC8201A8FFF71EFE1F488742F3
:1014600002D1DDF810A001E0DDF80CA0A88900F49D
:10147000004040B10AEBCA0000EB0A103168490095
:10148000B0FBF1F807E00AEBCA0000EB0A10316884
:101490008900B0FBF1F86420B8FBF0F004012009EA
:1014A000642101FB1089A88900F4004040B132207A
:1014B00000EBC900B0FBF1F000F00700044308E0C6
:1014C000322000EB09106421B0FBF1F000F00F00B6
:1014D00004432C8106B0BDE8F087000000380140CD
:1014E000C1F308028280704700BFFEE70FB4054BCE
:1014F00010B503A9044A029800F0DAF810BC5DF8B0
:1015000014FB0000B91D00082C00002002E008C8F0
:10151000121F08C1002AFAD170477047002001E06D
:1015200001C1121F002AFBD1704700002DE9FF5FA7
:1015300082B00021DDE90430020DDDF840B0034344
:1015400018D044F61050A2F2FF32424315141198FD
:1015500001281FD0A5EB0B00401C5FEA000A4FF0EA
:1015600000064E4FDFF83891B046504615D5CAF107
:10157000000413E0119801244AA3012801D16FEA65
:101580000B010298119AC0E90031C0E9024206B08D
:10159000BDE8F09FCBF10000DFE704460021404AA0
:1015A000491842EB0450CDE9001012E0E00707D0E3
:1015B00032463B4640464946FEF7A0FE80468946F5
:1015C00032463B4610461946FEF798FE06460F4641
:1015D0006410002CEAD1DDE90401DDE90023BAF151
:1015E000000F06DAFEF78AFE42464B46FEF786FEFD
:1015F00005E0FEF7F5FE42464B46FEF7F1FE0446D7
:101600000E460022284BFFF753F903D84FF0FF3066
:10161000014607E00022254B20463146FFF788F8B7
:10162000FFF72DF9102409E0002C0ADB0A22002321
:10163000FEF7B9FF039B30321A55641E50EA0102CF
:10164000F2D1641C039AC4F111031444119A012AC3
:1016500003D0012208430DD10AE0084304D0002042
:101660004FF0110B119072E7A3EB0B056D1E0DE00F
:101670005B4504DD4FF0000205F1010504E003DAEB
:101680004FF00002A5F10105002AECD00298119953
:10169000C0E90231C0E9004579E7000000001440CC
:1016A0000000F03F300000000000F0430000E03F89
:1016B0002DE9FF4F95B09A46884606460025EEE193
:1016C000252877D100242746F94A0121039400E018
:1016D000044316F8013F203B01FA03F01042F7D112
:1016E00030782A2811D06FF02F033078A0F1300223
:1016F000092A16D8039A44F0020402EB820203EB93
:1017000042021044761C0390EFE758F8042B039232
:10171000002A03DA504244F40054039044F00204D7
:10172000761C30782E2816D116F8010F44F00404E8
:101730002A280DD06FF02F023078A0F13003092B4A
:1017400009D807EB870302EB4303C718761CF3E7BE
:1017500058F8047B761C30786C280FD006DC4C28B7
:1017600017D068280DD06A2814D104E0742810D04E
:101770007A280FD10DE044F400140AE044F48014F8
:1017800001E044F440147278824202D104F58014DE
:10179000761C761C307866280BD013DC582877D05E
:1017A00009DC002875D04528F6D04628F4D0472813
:1017B0001AD193E118E0632835D0642879D06528E0
:1017C00012D18BE1702873D008DC6728F1D069282A
:1017D0006FD06E280DD06F2806D1ACE073282CD0C6
:1017E000752874D0782853D05246179990476D1CAD
:1017F00054E1C4F30250022809D003280DD0D8F8D0
:10180000001004280DD00D6008F1040846E1D8F856
:101810000010EA17C1E90052F6E7D8F800100D8071
:10182000F2E70D70F0E718F8041B8DF800100020A7
:101830008DF80100EB46012003E058F804BB4FF09F
:10184000FF3061074FF0000102D40DE009F1010102
:101850008946B9420FDA8145F8DB1BF809100029E7
:10186000F4D108E009F1010189468142FADB1BF855
:1018700009100029F6D103985346A0EB0907214629
:101880003846179A00F080FA284400EB090507E073
:1018900044E008E10DE01BF8010B52461799904710
:1018A000B9F10109F7D2534621463846179AF2E0BA
:1018B00039E00A21C4F302524FF0000B0091022AD2
:1018C00006D058F8040BC117032A09D00AE023E018
:1018D00008F1070020F00702F2E80201904605E057
:1018E00000B2C117042A01D140B2C117002906DA9B
:1018F0000A460021404261EB02012D2202E022054E
:1019000004D52B228DF80420012203E0E20701D048
:101910002022F7E7914657E00A2100E010214FF01E
:10192000000B00910BE010214FF0000B44F0040479
:101930000827009103E008204FF0000B0090C4F34B
:101940000252022A05D058F8040B0021032A08D0BD
:1019500008E008F1070020F00702F2E802019046D3
:1019600003E080B2042A00D1C0B24FF00009220780
:101970002AD53278702A07D0DDF800C08CF0100C20
:101980005CEA0B0C05D00EE040228DF80420012209
:1019900008E050EA010306D030238DF804308DF8BA
:1019A000052002229146009B83F0080353EA0B03B3
:1019B0000AD150EA010201D1620705D530228DF823
:1019C00004204FF001097F1E3278582A04D039A232
:1019D0000C920CAA02920BE03BA2F9E75B46009A3C
:1019E000FEF7E1FD0C9B9B5C029A521E0292137063
:1019F00050EA0102F2D1029804A9081A00F1200B62
:101A0000600702D524F4803400E001275F4502DD41
:101A1000A7EB0B0000E0002000EB0B010090039807
:101A20004944401A0390E00306D453462146179ACE
:101A3000039800F0A9F90544002706E001A85246E2
:101A4000C05D179990476D1C7F1C4F45F6DBE00386
:101A50000CD553462146179A039800F095F9054492
:101A600004E030205246179990476D1C0099481E9B
:101A700000900029F5DC08E00298029952460078AF
:101A8000491C0291179990476D1CBBF10001ABF105
:101A9000010BF1DC5BE100F065F90544761C307860
:101AA00000287FF40DAE19B02846BDE8F08F000085
:101AB0000928010030313233343536373839616224
:101AC00063646566000000003031323334353637E8
:101AD000383941424344454600000000600700D4C5
:101AE000062708F1070020F00700F0E802238046EF
:101AF00003F0004C5FEA0C0001D097A009E020053C
:101B000001D596A005E0E00701D095A001E0AFF275
:101B10004C001390307823F0004365280CD006DC8D
:101B2000452809D046281DD047287FD13BE06628AC
:101B300018D067287AD136E00021112F01DB11205F
:101B400000E0781CCDE9000104A90CA8FFF7EEFC29
:101B5000DDE90D010C9A4FF0000B07F1010910921D
:101B600000914EE04FF000400097CDE9011004A92C
:101B70000CA8FFF7DBFCDDE90D020C9B0F994FF081
:101B8000000B91461093009211B9791C00EB0109EA
:101B9000B7EB090003D4C0F1FF3B07F10109A9EB42
:101BA0000700019042E0012F00DA01270021112FE8
:101BB00001DD112000E03846CDE9000104A90CA8A0
:101BC000FFF7B4FCDDE90D010C9A00914FF0000B1A
:101BD000B946109221070FD4009A4A4503DA91467C
:101BE00001E0A9F10109B9F1010F05DD109AA9F190
:101BF0000101515C3029F4D0B84202DA10F1040F2F
:101C000003DA0121CDE9011010E0002803DC834450
:101C1000A9EB000102E0411C494500DD8946A0EB2B
:101C20000B00401C01904FF000400290200705D4AB
:101C30000198484502DB4FF0FF30019000208DF8FD
:101C40004B0002980DF14B07B0F1004F25D0022058
:101C50000C902B200D90029800280CDA4042029044
:101C60002D200D9007E00A210298FEF786FC303106
:101C7000029007F8011D0C99481E0C900029F2DC17
:101C800002980028EFD1791E0D980870307800F086
:101C9000200040F0450007F8020D11A8C01BC01D30
:101CA00002901398007800B1012000EB090101981F
:101CB00001EBE071029801440398401A401E039022
:101CC000E00306D453462146179A039800F05CF8C7
:101CD00005441398007818B15246179990476D1C27
:101CE000E00323D553462146179A039800F04CF899
:101CF00005441BE0BBF1000F07DB0098584504DDED
:101D00001098179910F80B0001E0179930205246EF
:101D1000904701980BF1010B401E05F10105019060
:101D200004D12E205246179990476D1CB9F100013D
:101D3000A9F10109DEDC05E017F8010B52461799FD
:101D400090476D1C0299481E02900029F4DC53460E
:101D50002146179A03989EE62D0000002B000000F4
:101D6000200000002DE9F041044600251E461746DC
:101D7000880404D405E039462020B0476D1C641E59
:101D8000F9D52846BDE8F0812DE9F041044600254B
:101D90001E469046C80301D5302700E0202788045E
:101DA00004D505E041463846B0476D1C641EF9D5A0
:101DB0002846BDE8F081000070B504460D46E1B24A
:101DC0000548FFF78DFB00BF80210348FFF70EFB9E
:101DD0000028F9D0204670BD0038014010B5012020
:101DE0000949086000F012F802200749091F08603D
:101DF00000F00CF802200449086000F007F8012008
:101E00000149091F086010BD14080140002001E0CD
:101E1000411CC8B20A28FBDB7047000010B5012046
:101E200007490860FFF7F2FF022005490860FFF745
:101E3000EDFF02200249091D0860FFF7E7FF10BD12
:101E40001008014070B50024002516E06006040E5D
:101E500002200C490860FFF7D9FF0A4808380068DB
:101E600000F0010008B1601CC4B202200549091D40
:101E70000860FFF7CBFF681CC5B2082DE6DB2046E3
:101E800070BD00001008014070B50446002520E038
:101E900004F0800018B101200F49086003E0012020
:101EA0000D49091D0860FFF7B1FF02200A490860CB
:101EB000FFF7ACFF02200849091D0860072D02D179
:101EC0000120091F08606006040EFFF79FFF681CD1
:101ED000C5B2082DDCDB70BD1008014010B5012033
:101EE0000949086002200860FFF790FF01200649B9
:101EF000091D0860FFF78AFF02200349091D0860D9
:101F0000FFF784FF10BD00001008014010B501204C
:101F1000054908600220091F0860FFF777FF0120CC
:101F20000149091F086010BD1408014010B50120C7
:101F30000C490860FFF76AFF02200A490860FFF7B2
:101F400065FF08480838006800F0010008B1012466
:101F500000E0002402200349091D0860FFF756FF36
:101F6000204610BD100801401FB5FEF77DFDFFF7AC
:101F700077F9FEF7D9FDFFF7F9F9FEF7E3FE02A8BE
:101F8000FEF771FF4EE002A8FEF78EFE0546FEF753
:101F9000ACFA0446214624A0FFF7A8FAFEF75CFD40
:101FA0000546FEF7A2FA8000322190FBF1F42146AB
:101FB00021A0FFF79BFAFEF74FFD07464FF0814146
:101FC000FEF72CF90446FEF7A9FA05462A460B4609
:101FD0001DA0FFF78BFA02A8FEF766FE0646FEF785
:101FE0009DFA044622460B461CA0FFF77FFA68467E
:101FF000FEF7F4FD9DF801209DF800101CA0FFF7EE
:1020000075FA9DF803209DF802101EA0FFF76EFAE6
:102010009DF8001020A0FFF769FA9DF8021022A099
:10202000FFF764FAAFE7000061646420332C302CC2
:102030002564FFFFFF00000061646420342C302C15
:102040002564FFFFFF00000074342E7478743D2275
:10205000252E326622FFFFFF0000000074332E742D
:1020600078743D22252E346622FFFFFF0000000019
:1020700074352E7478743D2225642E256422FFFF6A
:10208000FF00000074322E7478743D2225642E25E2
:102090006422FFFFFF00000061646420352C302CB7
:1020A0002564FFFFFF00000061646420322C302CA7
:1020B0002564FFFFFF000000D8200008000000207A
:1020C000300000000C150008082100083000002036
:1020D000000400001C15000800A24A0400000000D3
:1020E00000000000010203040607080900000000C8
:1020F000010203040102030406070809020406089A
:082100000000000000000000D7
:0400000508000131BD
:00000001FF
